{
  "_format": "hh3-artifact-1",
  "contractName": "LempiraCoin",
  "sourceName": "contracts/LempiraCoin.sol",
  "abi": [
    {
      "inputs": [
        {
          "internalType": "uint256",
          "name": "initialReserveTokens",
          "type": "uint256"
        }
      ],
      "stateMutability": "nonpayable",
      "type": "constructor"
    },
    {
      "inputs": [
        {
          "internalType": "address",
          "name": "spender",
          "type": "address"
        },
        {
          "internalType": "uint256",
          "name": "allowance",
          "type": "uint256"
        },
        {
          "internalType": "uint256",
          "name": "needed",
          "type": "uint256"
        }
      ],
      "name": "ERC20InsufficientAllowance",
      "type": "error"
    },
    {
      "inputs": [
        {
          "internalType": "address",
          "name": "sender",
          "type": "address"
        },
        {
          "internalType": "uint256",
          "name": "balance",
          "type": "uint256"
        },
        {
          "internalType": "uint256",
          "name": "needed",
          "type": "uint256"
        }
      ],
      "name": "ERC20InsufficientBalance",
      "type": "error"
    },
    {
      "inputs": [
        {
          "internalType": "address",
          "name": "approver",
          "type": "address"
        }
      ],
      "name": "ERC20InvalidApprover",
      "type": "error"
    },
    {
      "inputs": [
        {
          "internalType": "address",
          "name": "receiver",
          "type": "address"
        }
      ],
      "name": "ERC20InvalidReceiver",
      "type": "error"
    },
    {
      "inputs": [
        {
          "internalType": "address",
          "name": "sender",
          "type": "address"
        }
      ],
      "name": "ERC20InvalidSender",
      "type": "error"
    },
    {
      "inputs": [
        {
          "internalType": "address",
          "name": "spender",
          "type": "address"
        }
      ],
      "name": "ERC20InvalidSpender",
      "type": "error"
    },
    {
      "inputs": [
        {
          "internalType": "address",
          "name": "owner",
          "type": "address"
        }
      ],
      "name": "OwnableInvalidOwner",
      "type": "error"
    },
    {
      "inputs": [
        {
          "internalType": "address",
          "name": "account",
          "type": "address"
        }
      ],
      "name": "OwnableUnauthorizedAccount",
      "type": "error"
    },
    {
      "anonymous": false,
      "inputs": [
        {
          "indexed": true,
          "internalType": "address",
          "name": "owner",
          "type": "address"
        },
        {
          "indexed": true,
          "internalType": "address",
          "name": "spender",
          "type": "address"
        },
        {
          "indexed": false,
          "internalType": "uint256",
          "name": "value",
          "type": "uint256"
        }
      ],
      "name": "Approval",
      "type": "event"
    },
    {
      "anonymous": false,
      "inputs": [
        {
          "indexed": true,
          "internalType": "address",
          "name": "buyer",
          "type": "address"
        },
        {
          "indexed": false,
          "internalType": "uint256",
          "name": "ethPaid",
          "type": "uint256"
        },
        {
          "indexed": false,
          "internalType": "uint256",
          "name": "tokensMinted",
          "type": "uint256"
        }
      ],
      "name": "BoughtWithETH",
      "type": "event"
    },
    {
      "anonymous": false,
      "inputs": [
        {
          "indexed": true,
          "internalType": "address",
          "name": "previousOwner",
          "type": "address"
        },
        {
          "indexed": true,
          "internalType": "address",
          "name": "newOwner",
          "type": "address"
        }
      ],
      "name": "OwnershipTransferred",
      "type": "event"
    },
    {
      "anonymous": false,
      "inputs": [
        {
          "indexed": false,
          "internalType": "uint256",
          "name": "oldRate",
          "type": "uint256"
        },
        {
          "indexed": false,
          "internalType": "uint256",
          "name": "newRate",
          "type": "uint256"
        }
      ],
      "name": "RateChanged",
      "type": "event"
    },
    {
      "anonymous": false,
      "inputs": [
        {
          "indexed": true,
          "internalType": "address",
          "name": "redeemer",
          "type": "address"
        },
        {
          "indexed": false,
          "internalType": "uint256",
          "name": "tokensBurned",
          "type": "uint256"
        },
        {
          "indexed": false,
          "internalType": "uint256",
          "name": "ethReturned",
          "type": "uint256"
        }
      ],
      "name": "RedeemedForETH",
      "type": "event"
    },
    {
      "anonymous": false,
      "inputs": [
        {
          "indexed": true,
          "internalType": "address",
          "name": "from",
          "type": "address"
        },
        {
          "indexed": true,
          "internalType": "address",
          "name": "to",
          "type": "address"
        },
        {
          "indexed": false,
          "internalType": "uint256",
          "name": "value",
          "type": "uint256"
        }
      ],
      "name": "Transfer",
      "type": "event"
    },
    {
      "anonymous": false,
      "inputs": [
        {
          "indexed": true,
          "internalType": "address",
          "name": "to",
          "type": "address"
        },
        {
          "indexed": false,
          "internalType": "uint256",
          "name": "amount",
          "type": "uint256"
        }
      ],
      "name": "Withdrawn",
      "type": "event"
    },
    {
      "stateMutability": "payable",
      "type": "fallback"
    },
    {
      "inputs": [
        {
          "internalType": "address",
          "name": "owner",
          "type": "address"
        },
        {
          "internalType": "address",
          "name": "spender",
          "type": "address"
        }
      ],
      "name": "allowance",
      "outputs": [
        {
          "internalType": "uint256",
          "name": "",
          "type": "uint256"
        }
      ],
      "stateMutability": "view",
      "type": "function"
    },
    {
      "inputs": [
        {
          "internalType": "address",
          "name": "spender",
          "type": "address"
        },
        {
          "internalType": "uint256",
          "name": "value",
          "type": "uint256"
        }
      ],
      "name": "approve",
      "outputs": [
        {
          "internalType": "bool",
          "name": "",
          "type": "bool"
        }
      ],
      "stateMutability": "nonpayable",
      "type": "function"
    },
    {
      "inputs": [
        {
          "internalType": "address",
          "name": "account",
          "type": "address"
        }
      ],
      "name": "balanceOf",
      "outputs": [
        {
          "internalType": "uint256",
          "name": "",
          "type": "uint256"
        }
      ],
      "stateMutability": "view",
      "type": "function"
    },
    {
      "inputs": [],
      "name": "buyWithETH",
      "outputs": [],
      "stateMutability": "payable",
      "type": "function"
    },
    {
      "inputs": [],
      "name": "decimals",
      "outputs": [
        {
          "internalType": "uint8",
          "name": "",
          "type": "uint8"
        }
      ],
      "stateMutability": "view",
      "type": "function"
    },
    {
      "inputs": [],
      "name": "getLempirasCoinAmount",
      "outputs": [
        {
          "internalType": "uint256",
          "name": "",
          "type": "uint256"
        }
      ],
      "stateMutability": "view",
      "type": "function"
    },
    {
      "inputs": [],
      "name": "name",
      "outputs": [
        {
          "internalType": "string",
          "name": "",
          "type": "string"
        }
      ],
      "stateMutability": "view",
      "type": "function"
    },
    {
      "inputs": [],
      "name": "owner",
      "outputs": [
        {
          "internalType": "address",
          "name": "",
          "type": "address"
        }
      ],
      "stateMutability": "view",
      "type": "function"
    },
    {
      "inputs": [],
      "name": "rateInTokenPerEth",
      "outputs": [
        {
          "internalType": "uint256",
          "name": "",
          "type": "uint256"
        }
      ],
      "stateMutability": "view",
      "type": "function"
    },
    {
      "inputs": [],
      "name": "renounceOwnership",
      "outputs": [],
      "stateMutability": "nonpayable",
      "type": "function"
    },
    {
      "inputs": [
        {
          "internalType": "address",
          "name": "tokenAddr",
          "type": "address"
        },
        {
          "internalType": "address",
          "name": "to",
          "type": "address"
        }
      ],
      "name": "rescueERC20",
      "outputs": [],
      "stateMutability": "nonpayable",
      "type": "function"
    },
    {
      "inputs": [
        {
          "internalType": "uint256",
          "name": "newRateInTokenPerEth",
          "type": "uint256"
        }
      ],
      "name": "setRate",
      "outputs": [],
      "stateMutability": "nonpayable",
      "type": "function"
    },
    {
      "inputs": [],
      "name": "symbol",
      "outputs": [
        {
          "internalType": "string",
          "name": "",
          "type": "string"
        }
      ],
      "stateMutability": "view",
      "type": "function"
    },
    {
      "inputs": [],
      "name": "totalSupply",
      "outputs": [
        {
          "internalType": "uint256",
          "name": "",
          "type": "uint256"
        }
      ],
      "stateMutability": "view",
      "type": "function"
    },
    {
      "inputs": [
        {
          "internalType": "address",
          "name": "to",
          "type": "address"
        },
        {
          "internalType": "uint256",
          "name": "value",
          "type": "uint256"
        }
      ],
      "name": "transfer",
      "outputs": [
        {
          "internalType": "bool",
          "name": "",
          "type": "bool"
        }
      ],
      "stateMutability": "nonpayable",
      "type": "function"
    },
    {
      "inputs": [
        {
          "internalType": "address",
          "name": "from",
          "type": "address"
        },
        {
          "internalType": "address",
          "name": "to",
          "type": "address"
        },
        {
          "internalType": "uint256",
          "name": "value",
          "type": "uint256"
        }
      ],
      "name": "transferFrom",
      "outputs": [
        {
          "internalType": "bool",
          "name": "",
          "type": "bool"
        }
      ],
      "stateMutability": "nonpayable",
      "type": "function"
    },
    {
      "inputs": [
        {
          "internalType": "address",
          "name": "newOwner",
          "type": "address"
        }
      ],
      "name": "transferOwnership",
      "outputs": [],
      "stateMutability": "nonpayable",
      "type": "function"
    },
    {
      "inputs": [
        {
          "internalType": "address payable",
          "name": "to",
          "type": "address"
        },
        {
          "internalType": "uint256",
          "name": "amount",
          "type": "uint256"
        }
      ],
      "name": "withdrawETH",
      "outputs": [],
      "stateMutability": "nonpayable",
      "type": "function"
    },
    {
      "stateMutability": "payable",
      "type": "receive"
    }
  ],
  "bytecode": "0x60806040523461002f576100196100146100e0565b6102d9565b610021610034565b611ba0610a388239611ba090f35b61003a565b60405190565b5f80fd5b601f801991011690565b634e487b7160e01b5f52604160045260245ffd5b906100669061003e565b810190811060018060401b0382111761007e57604052565b610048565b9061009661008f610034565b928361005c565b565b5f80fd5b90565b6100a88161009c565b036100af57565b5f80fd5b905051906100c08261009f565b565b906020828203126100db576100d8915f016100b3565b90565b610098565b6100fe6125d8803803806100f381610083565b9283398101906100c2565b90565b60018060401b03811161011d5761011960209161003e565b0190565b610048565b9061013461012f83610101565b610083565b918252565b5f7f4c656d70697261436f696e000000000000000000000000000000000000000000910152565b61016a600b610122565b9061017760208301610139565b565b610181610160565b90565b5f7f4c454d5000000000000000000000000000000000000000000000000000000000910152565b6101b56004610122565b906101c260208301610184565b565b6101cc6101ab565b90565b5f1b90565b906101e05f19916101cf565b9181191691161790565b90565b90565b6102046101ff610209926101ea565b6101ed565b61009c565b90565b90565b9061022461021f61022b926101f0565b61020c565b82546101d4565b9055565b90565b61024661024161024b9261022f565b6101ed565b61009c565b90565b60209181520190565b5f7f496e697469616c207265736572766520746f6f20736d616c6c00000000000000910152565b61028b601960209261024e565b61029481610257565b0190565b6102ad9060208101905f81830391015261027e565b90565b156102b757565b6102bf610034565b62461bcd60e51b8152806102d560048201610298565b0390fd5b610336906102f7336102e9610179565b6102f16101c4565b9161039c565b61030c69152d02c7e14af6800000600661020f565b6103308161032a610324670de0b6b3a7640000610232565b9161009c565b116102b0565b3361065e565b565b90565b60018060a01b031690565b61035a61035561035f92610338565b6101ed565b61033b565b90565b61036b90610346565b90565b6103779061033b565b90565b6103839061036e565b9052565b919061039a905f6020850194019061037a565b565b916103a691610646565b806103c16103bb6103b65f610362565b61036e565b9161036e565b146103d1576103cf90610764565b565b6103f46103dd5f610362565b5f918291631e4fbdf760e01b835260048301610387565b0390fd5b5190565b634e487b7160e01b5f52602260045260245ffd5b9060016002830492168015610430575b602083101461042b57565b6103fc565b91607f1691610420565b5f5260205f2090565b601f602091010490565b1b90565b9190600861046c9102916104665f198461044d565b9261044d565b9181191691161790565b61048a61048561048f9261009c565b6101ed565b61009c565b90565b91906104a86104a36104b093610476565b61020c565b908354610451565b9055565b5f90565b6104ca916104c46104b4565b91610492565b565b5b8181106104d8575050565b806104e55f6001936104b8565b016104cd565b9190601f81116104fb575b505050565b61050761052c9361043a565b90602061051384610443565b83019310610534575b61052590610443565b01906104cc565b5f80806104f6565b91506105258192905061051c565b1c90565b90610556905f1990600802610542565b191690565b8161056591610546565b906002021790565b90610577816103f8565b9060018060401b03821161063557610599826105938554610410565b856104eb565b602090601f83116001146105cd579180916105bc935f926105c1575b505061055b565b90555b565b90915001515f806105b5565b601f198316916105dc8561043a565b925f5b81811061061d57509160029391856001969410610603575b505050020190556105bf565b610613910151601f841690610546565b90555f80806105f7565b919360206001819287870151815501950192016105df565b610048565b906106449161056d565b565b9061065561065c92600361063a565b600461063a565b565b8061067961067361066e5f610362565b61036e565b9161036e565b14610695576106939161068b5f610362565b9190916108c8565b565b6106b86106a15f610362565b5f91829163ec442f0560e01b835260048301610387565b0390fd5b5f1c90565b60018060a01b031690565b6106d86106dd916106bc565b6106c1565b90565b6106ea90546106cc565b90565b906106fe60018060a01b03916101cf565b9181191691161790565b61071c6107176107219261033b565b6101ed565b61033b565b90565b61072d90610708565b90565b61073990610724565b90565b90565b9061075461074f61075b92610730565b61073c565b82546106ed565b9055565b5f0190565b61076e60056106e0565b61077982600561073f565b906107ad6107a77f8be0079c531659141344cd1fd0a4f28419497f9722a3daafe3b4186f6b6457e093610730565b91610730565b916107b6610034565b806107c08161075f565b0390a3565b906107cf90610730565b5f5260205260405f2090565b90565b6107ea6107ef916106bc565b6107db565b90565b6107fc90546107de565b90565b6108089061009c565b9052565b60409061083561083c949695939661082b60608401985f85019061037a565b60208301906107ff565b01906107ff565b565b90610849910361009c565b90565b9061086161085c61086892610476565b61020c565b82546101d4565b9055565b634e487b7160e01b5f52601160045260245ffd5b61088f6108959193929361009c565b9261009c565b82018092116108a057565b61086c565b906108b0910161009c565b90565b91906108c6905f602085019401906107ff565b565b919091806108e66108e06108db5f610362565b61036e565b9161036e565b145f146109c75761090a610903836108fe60026107f2565b610880565b600261084c565b5b8261092661092061091b5f610362565b61036e565b9161036e565b145f1461099b5761094a6109438361093e60026107f2565b61083e565b600261084c565b5b91909161099661098461097e7fddf252ad1be2c89b69c2b068fc378daa952ba7f163c4a11628f55a4df523b3ef93610730565b93610730565b9361098d610034565b918291826108b3565b0390a3565b6109c2826109bc6109ad5f87906107c5565b916109b7836107f2565b6108a5565b9061084c565b61094b565b6109da6109d55f83906107c5565b6107f2565b806109ed6109e78561009c565b9161009c565b10610a1557610a00610a1091849061083e565b610a0b5f84906107c5565b61084c565b61090b565b90610a339091925f93849363391434e360e21b85526004850161080c565b0390fdfe60806040526004361015610028575b361561001e5761001c61163c565b005b610026611632565b005b6100325f35610151565b806306fdde031461014c578063095ea7b314610147578063150d283d1461014257806318160ddd1461013d57806323b872dd14610138578063313ce5671461013357806334fcf4371461012e5780634782f779146101295780635d799f871461012457806366d2ae2d1461011f57806370a082311461011a578063715018a6146101155780638da5cb5b1461011057806395d89b411461010b57806396dc1aac14610106578063a9059cbb14610101578063dd62ed3e146100fc5763f2fde38b0361000e576107b6565b610780565b61074a565b610715565b6106a4565b61066f565b61061a565b6105e5565b610592565b61055e565b6104fd565b61046e565b61041b565b6103bd565b61034e565b610303565b6102c8565b6101df565b60e01c90565b60405190565b5f80fd5b5f80fd5b5f91031261016f57565b610161565b5190565b60209181520190565b90825f9392825e0152565b601f801991011690565b6101b56101be6020936101c3936101ac81610174565b93848093610178565b95869101610181565b61018c565b0190565b6101dc9160208201915f818403910152610196565b90565b3461020f576101ef366004610165565b61020b6101fa610942565b610202610157565b918291826101c7565b0390f35b61015d565b60018060a01b031690565b61022890610214565b90565b6102348161021f565b0361023b57565b5f80fd5b9050359061024c8261022b565b565b90565b61025a8161024e565b0361026157565b5f80fd5b9050359061027282610251565b565b919060408382031261029c5780610290610299925f860161023f565b93602001610265565b90565b610161565b151590565b6102af906102a1565b9052565b91906102c6905f602085019401906102a6565b565b346102f9576102f56102e46102de366004610274565b9061095c565b6102ec610157565b918291826102b3565b0390f35b61015d565b5f0190565b61030e366004610165565b610316610be5565b61031e610157565b80610328816102fe565b0390f35b6103359061024e565b9052565b919061034c905f6020850194019061032c565b565b3461037e5761035e366004610165565b61037a610369610ca9565b610371610157565b91829182610339565b0390f35b61015d565b90916060828403126103b8576103b561039e845f850161023f565b936103ac816020860161023f565b93604001610265565b90565b610161565b346103ee576103ea6103d96103d3366004610383565b91610cbf565b6103e1610157565b918291826102b3565b0390f35b61015d565b60ff1690565b610402906103f3565b9052565b9190610419905f602085019401906103f9565b565b3461044b5761042b366004610165565b610447610436610d11565b61043e610157565b91829182610406565b0390f35b61015d565b9060208282031261046957610466915f01610265565b90565b610161565b3461049c57610486610481366004610450565b610e83565b61048e610157565b80610498816102fe565b0390f35b61015d565b6104aa90610214565b90565b6104b6816104a1565b036104bd57565b5f80fd5b905035906104ce826104ad565b565b91906040838203126104f857806104ec6104f5925f86016104c1565b93602001610265565b90565b610161565b3461052c576105166105103660046104d0565b906111c8565b61051e610157565b80610528816102fe565b0390f35b61015d565b9190604083820312610559578061054d610556925f860161023f565b9360200161023f565b90565b610161565b3461058d57610577610571366004610531565b90611482565b61057f610157565b80610589816102fe565b0390f35b61015d565b346105c2576105a2366004610165565b6105be6105ad61148e565b6105b5610157565b91829182610339565b0390f35b61015d565b906020828203126105e0576105dd915f0161023f565b90565b610161565b34610615576106116106006105fb3660046105c7565b6114b9565b610608610157565b91829182610339565b0390f35b61015d565b346106485761062a366004610165565b6106326114fc565b61063a610157565b80610644816102fe565b0390f35b61015d565b6106569061021f565b9052565b919061066d905f6020850194019061064d565b565b3461069f5761067f366004610165565b61069b61068a611536565b610692610157565b9182918261065a565b0390f35b61015d565b346106d4576106b4366004610165565b6106d06106bf61154c565b6106c7610157565b918291826101c7565b0390f35b61015d565b1c90565b90565b6106f09060086106f593026106d9565b6106dd565b90565b9061070391546106e0565b90565b61071260065f906106f8565b90565b3461074557610725366004610165565b610741610730610706565b610738610157565b91829182610339565b0390f35b61015d565b3461077b57610777610766610760366004610274565b90611562565b61076e610157565b918291826102b3565b0390f35b61015d565b346107b1576107ad61079c610796366004610531565b9061159a565b6107a4610157565b91829182610339565b0390f35b61015d565b346107e4576107ce6107c93660046105c7565b611627565b6107d6610157565b806107e0816102fe565b0390f35b61015d565b606090565b634e487b7160e01b5f52602260045260245ffd5b9060016002830492168015610822575b602083101461081d57565b6107ee565b91607f1691610812565b60209181520190565b5f5260205f2090565b905f929180549061085861085183610802565b809461082c565b916001811690815f146108af5750600114610873575b505050565b6108809192939450610835565b915f925b81841061089757505001905f808061086e565b60018160209295939554848601520191019290610884565b92949550505060ff19168252151560200201905f808061086e565b906108d49161083e565b90565b634e487b7160e01b5f52604160045260245ffd5b906108f59061018c565b810190811067ffffffffffffffff82111761090f57604052565b6108d7565b9061093461092d92610924610157565b938480926108ca565b03836108eb565b565b61093f90610914565b90565b61094a6107e9565b506109556003610936565b90565b5f90565b61097991610968610958565b50610971611646565b919091611653565b600190565b90565b90565b61099861099361099d9261097e565b610981565b61024e565b90565b5f7f4e6f204554482073656e74000000000000000000000000000000000000000000910152565b6109d4600b602092610178565b6109dd816109a0565b0190565b6109f69060208101905f8183039101526109c7565b90565b15610a0057565b610a08610157565b62461bcd60e51b815280610a1e600482016109e1565b0390fd5b5f1c90565b610a33610a3891610a22565b6106dd565b90565b610a459054610a27565b90565b634e487b7160e01b5f52601160045260245ffd5b610a6b610a719193929361024e565b9261024e565b91610a7d83820261024e565b928184041490151715610a8c57565b610a48565b90565b610aa8610aa3610aad92610a91565b610981565b61024e565b90565b634e487b7160e01b5f52601260045260245ffd5b610ad0610ad69161024e565b9161024e565b908115610ae1570490565b610ab0565b60207f7261746500000000000000000000000000000000000000000000000000000000917f416d6f756e7420746f6f20736d616c6c20666f7220636f6e66696775726564205f8201520152565b610b406024604092610178565b610b4981610ae6565b0190565b610b629060208101905f818303910152610b33565b90565b15610b6c57565b610b74610157565b62461bcd60e51b815280610b8a60048201610b4d565b0390fd5b610ba2610b9d610ba792610214565b610981565b610214565b90565b610bb390610b8e565b90565b610bbf90610baa565b90565b916020610be3929493610bdc60408201965f83019061032c565b019061032c565b565b610c0134610bfb610bf55f610984565b9161024e565b116109f9565b610c2f610c1834610c126006610a3b565b90610a5c565b610c29670de0b6b3a7640000610a94565b90610ac4565b610c4b81610c45610c3f5f610984565b9161024e565b11610b65565b610c5e610c56611536565b338391611663565b333491610c8b7fa3bec74886cd7c578843e05dea5f91a3dff332a8e9217627b54447307b76264c92610bb6565b92610ca0610c97610157565b92839283610bc2565b0390a2565b5f90565b610cb1610ca5565b50610cbc6002610a3b565b90565b91610ce992610ccc610958565b50610ce1610cd8611646565b82908491611740565b919091611663565b600190565b5f90565b90565b610d09610d04610d0e92610cf2565b610981565b6103f3565b90565b610d19610cee565b50610d246012610cf5565b90565b610d3890610d336117cc565b610e16565b565b5f7f72617465203d2030000000000000000000000000000000000000000000000000910152565b610d6e6008602092610178565b610d7781610d3a565b0190565b610d909060208101905f818303910152610d61565b90565b15610d9a57565b610da2610157565b62461bcd60e51b815280610db860048201610d7b565b0390fd5b5f1b90565b90610dcd5f1991610dbc565b9181191691161790565b610deb610de6610df09261024e565b610981565b61024e565b90565b90565b90610e0b610e06610e1292610dd7565b610df3565b8254610dc1565b9055565b610e3281610e2c610e265f610984565b9161024e565b11610d93565b610e3c6006610a3b565b610e47826006610df6565b907f4ac9052a820bf4f8c02d7588587cae835573b5b99ea7ad4ca002f17f319f718691610e7e610e75610157565b92839283610bc2565b0390a1565b610e8c90610d27565b565b90610ea091610e9b6117cc565b611105565b565b610eb6610eb1610ebb9261097e565b610981565b610214565b90565b610ec790610ea2565b90565b610ed390610baa565b90565b5f7f7a65726f20616464726573730000000000000000000000000000000000000000910152565b610f0a600c602092610178565b610f1381610ed6565b0190565b610f2c9060208101905f818303910152610efd565b90565b15610f3657565b610f3e610157565b62461bcd60e51b815280610f5460048201610f17565b0390fd5b610f6190610baa565b90565b5f7f696e73756666696369656e742062616c616e6365000000000000000000000000910152565b610f986014602092610178565b610fa181610f64565b0190565b610fba9060208101905f818303910152610f8b565b90565b15610fc457565b610fcc610157565b62461bcd60e51b815280610fe260048201610fa5565b0390fd5b905090565b610ff65f8092610fe6565b0190565b61100390610feb565b90565b90611019611012610157565b92836108eb565b565b67ffffffffffffffff81116110395761103560209161018c565b0190565b6108d7565b9061105061104b8361101b565b611006565b918252565b606090565b3d5f146110755761106a3d61103e565b903d5f602084013e5b565b61107d611055565b90611073565b5f7f7769746864726177206661696c65640000000000000000000000000000000000910152565b6110b7600f602092610178565b6110c081611083565b0190565b6110d99060208101905f8183039101526110aa565b90565b156110e357565b6110eb610157565b62461bcd60e51b815280611101600482016110c4565b0390fd5b61112a8161112361111d6111185f610ebe565b61021f565b91610eca565b1415610f2f565b6111508261114961114361113d30610f58565b3161024e565b9161024e565b1115610fbd565b6111845f8061115e84610eca565b85611167610157565b908161117281610ffa565b03925af161117e61105a565b506110dc565b6111c36111b17f7084f5476618d8e60b11ef0d7d3f06914655adb8793e28ff7f018d4c76d505d592610eca565b926111ba610157565b91829182610339565b0390a2565b906111d291610e8e565b565b906111e6916111e16117cc565b611335565b565b6111f190610b8e565b90565b6111fd906111e8565b90565b61120990610baa565b90565b60e01b90565b9050519061121f82610251565b565b9060208282031261123a57611237915f01611212565b90565b610161565b611247610157565b3d5f823e3d90fd5b5f7f6e6f20746f6b656e2062616c616e636500000000000000000000000000000000910152565b6112836010602092610178565b61128c8161124f565b0190565b6112a59060208101905f818303910152611276565b90565b156112af57565b6112b7610157565b62461bcd60e51b8152806112cd60048201611290565b0390fd5b6112da816102a1565b036112e157565b5f80fd5b905051906112f2826112d1565b565b9060208282031261130d5761130a915f016112e5565b90565b610161565b91602061133392949361132c60408201965f83019061064d565b019061032c565b565b6113666113a3916113618461135a61135461134f5f610ebe565b61021f565b9161021f565b1415610f2f565b6111f4565b602061137182611200565b6370a082319061139861138330610f58565b9261138c610157565b9687948593849361120c565b83526004830161065a565b03915afa91821561147d576020926113df915f91611450575b50916113da836113d46113ce5f610984565b9161024e565b116112a8565b611200565b6114025f63a9059cbb95939561140d6113f6610157565b9788968795869461120c565b845260048401611312565b03925af1801561144b5761141f575b50565b61143f9060203d8111611444575b61143781836108eb565b8101906112f4565b61141c565b503d61142d565b61123f565b6114709150843d8111611476575b61146881836108eb565b810190611221565b5f6113bc565b503d61145e565b61123f565b9061148c916111d4565b565b611496610ca5565b506114a0336114b9565b90565b906114ad90610bb6565b5f5260205260405f2090565b6114cf6114d4916114c8610ca5565b505f6114a3565b610a3b565b90565b6114df6117cc565b6114e76114e9565b565b6114fa6114f55f610ebe565b611858565b565b6115046114d7565b565b5f90565b60018060a01b031690565b61152161152691610a22565b61150a565b90565b6115339054611515565b90565b61153e611506565b506115496005611529565b90565b6115546107e9565b5061155f6004610936565b90565b61157f9161156e610958565b50611577611646565b919091611663565b600190565b9061158e90610bb6565b5f5260205260405f2090565b6115bf916115b56115ba926115ad610ca5565b506001611584565b6114a3565b610a3b565b90565b6115d3906115ce6117cc565b6115d5565b565b806115f06115ea6115e55f610ebe565b61021f565b9161021f565b14611600576115fe90611858565b565b61162361160c5f610ebe565b5f918291631e4fbdf760e01b83526004830161065a565b0390fd5b611630906115c2565b565b61163a610be5565b565b611644610be5565b565b61164e611506565b503390565b9161166192916001926118b9565b565b918261167f6116796116745f610ebe565b61021f565b9161021f565b146116d9578161169f6116996116945f610ebe565b61021f565b9161021f565b146116b2576116b0929190916119fb565b565b6116d56116be5f610ebe565b5f91829163ec442f0560e01b83526004830161065a565b0390fd5b6116fc6116e55f610ebe565b5f918291634b637e8f60e11b83526004830161065a565b0390fd5b604090611729611730949695939661171f60608401985f85019061064d565b602083019061032c565b019061032c565b565b9061173d910361024e565b90565b92919261174e81839061159a565b908161176361175d5f1961024e565b9161024e565b10611770575b5050509050565b8161178361177d8761024e565b9161024e565b106117a9576117a09394611798919392611732565b905f926118b9565b805f8080611769565b506117c8849291925f938493637dc7a0d960e11b855260048501611700565b0390fd5b6117d4611536565b6117ed6117e76117e2611646565b61021f565b9161021f565b036117f457565b6118166117ff611646565b5f91829163118cdaa760e01b83526004830161065a565b0390fd5b9061182b60018060a01b0391610dbc565b9181191691161790565b90565b9061184d61184861185492610bb6565b611835565b825461181a565b9055565b6118626005611529565b61186d826005611838565b906118a161189b7f8be0079c531659141344cd1fd0a4f28419497f9722a3daafe3b4186f6b6457e093610bb6565b91610bb6565b916118aa610157565b806118b4816102fe565b0390a3565b9092816118d66118d06118cb5f610ebe565b61021f565b9161021f565b146119a157836118f66118f06118eb5f610ebe565b61021f565b9161021f565b1461197a5761191a8361191561190e60018690611584565b87906114a3565b610df6565b611924575b505050565b91909161196f61195d6119577f8c5be1e5ebec7d5bd14f71427d1e84f3dd0314c0f7b2291e5b200ac8c7c3b92593610bb6565b93610bb6565b93611966610157565b91829182610339565b0390a35f808061191f565b61199d6119865f610ebe565b5f918291634a1406b160e11b83526004830161065a565b0390fd5b6119c46119ad5f610ebe565b5f91829163e602df0560e01b83526004830161065a565b0390fd5b6119d76119dd9193929361024e565b9261024e565b82018092116119e857565b610a48565b906119f8910161024e565b90565b91909180611a19611a13611a0e5f610ebe565b61021f565b9161021f565b145f14611afa57611a3d611a3683611a316002610a3b565b6119c8565b6002610df6565b5b82611a59611a53611a4e5f610ebe565b61021f565b9161021f565b145f14611ace57611a7d611a7683611a716002610a3b565b611732565b6002610df6565b5b919091611ac9611ab7611ab17fddf252ad1be2c89b69c2b068fc378daa952ba7f163c4a11628f55a4df523b3ef93610bb6565b93610bb6565b93611ac0610157565b91829182610339565b0390a3565b611af582611aef611ae05f87906114a3565b91611aea83610a3b565b6119ed565b90610df6565b611a7e565b611b0d611b085f83906114a3565b610a3b565b80611b20611b1a8561024e565b9161024e565b10611b4857611b33611b43918490611732565b611b3e5f84906114a3565b610df6565b611a3e565b90611b669091925f93849363391434e360e21b855260048501611700565b0390fdfea264697066735822122060ec38bc698f07e7267e80b0f995b372c48dc0ed55a11ab7c76b31189218aad364736f6c634300081c0033",
  "linkReferences": {},
  "deployedLinkReferences": {},
  "immutableReferences": {},
  "inputSourceName": "project/contracts/LempiraCoin.sol",
  "buildInfoId": "solc-0_8_28-e47f5618992b26063daaa8755ff37584700829da"
}