{
  "_format": "hh3-artifact-1",
  "contractName": "Loans",
  "sourceName": "contracts/Loans.sol",
  "abi": [
    {
      "inputs": [],
      "stateMutability": "nonpayable",
      "type": "constructor"
    },
    {
      "inputs": [
        {
          "internalType": "address",
          "name": "owner",
          "type": "address"
        }
      ],
      "name": "OwnableInvalidOwner",
      "type": "error"
    },
    {
      "inputs": [
        {
          "internalType": "address",
          "name": "account",
          "type": "address"
        }
      ],
      "name": "OwnableUnauthorizedAccount",
      "type": "error"
    },
    {
      "anonymous": false,
      "inputs": [
        {
          "indexed": false,
          "internalType": "uint256",
          "name": "loanId",
          "type": "uint256"
        },
        {
          "indexed": false,
          "internalType": "address",
          "name": "borrower",
          "type": "address"
        },
        {
          "indexed": false,
          "internalType": "uint256",
          "name": "amount",
          "type": "uint256"
        }
      ],
      "name": "LoanCreated",
      "type": "event"
    },
    {
      "anonymous": false,
      "inputs": [
        {
          "indexed": false,
          "internalType": "uint256",
          "name": "loanId",
          "type": "uint256"
        },
        {
          "indexed": false,
          "internalType": "address",
          "name": "borrower",
          "type": "address"
        },
        {
          "indexed": false,
          "internalType": "uint256",
          "name": "amount",
          "type": "uint256"
        },
        {
          "indexed": false,
          "internalType": "uint256",
          "name": "tax",
          "type": "uint256"
        }
      ],
      "name": "LoanCreated",
      "type": "event"
    },
    {
      "anonymous": false,
      "inputs": [
        {
          "indexed": false,
          "internalType": "uint256",
          "name": "loanId",
          "type": "uint256"
        },
        {
          "indexed": false,
          "internalType": "address",
          "name": "borrower",
          "type": "address"
        }
      ],
      "name": "LoanFinalized",
      "type": "event"
    },
    {
      "anonymous": false,
      "inputs": [
        {
          "indexed": false,
          "internalType": "uint256",
          "name": "paymentId",
          "type": "uint256"
        },
        {
          "indexed": false,
          "internalType": "uint256",
          "name": "loanId",
          "type": "uint256"
        },
        {
          "indexed": false,
          "internalType": "address",
          "name": "borrower",
          "type": "address"
        },
        {
          "indexed": false,
          "internalType": "uint256",
          "name": "amount",
          "type": "uint256"
        }
      ],
      "name": "LoanPaid",
      "type": "event"
    },
    {
      "anonymous": false,
      "inputs": [
        {
          "indexed": true,
          "internalType": "address",
          "name": "previousOwner",
          "type": "address"
        },
        {
          "indexed": true,
          "internalType": "address",
          "name": "newOwner",
          "type": "address"
        }
      ],
      "name": "OwnershipTransferred",
      "type": "event"
    },
    {
      "inputs": [
        {
          "internalType": "address",
          "name": "borrower",
          "type": "address"
        },
        {
          "internalType": "uint256",
          "name": "lempiraCoinAmount",
          "type": "uint256"
        },
        {
          "internalType": "uint256",
          "name": "maxPaymentPerMonth",
          "type": "uint256"
        },
        {
          "internalType": "bool",
          "name": "hasColateral",
          "type": "bool"
        }
      ],
      "name": "createLoan",
      "outputs": [],
      "stateMutability": "nonpayable",
      "type": "function"
    },
    {
      "inputs": [
        {
          "internalType": "address",
          "name": "",
          "type": "address"
        }
      ],
      "name": "currentLoan",
      "outputs": [
        {
          "internalType": "uint256",
          "name": "loanId",
          "type": "uint256"
        },
        {
          "internalType": "uint256",
          "name": "timestamp",
          "type": "uint256"
        },
        {
          "internalType": "uint256",
          "name": "tax",
          "type": "uint256"
        },
        {
          "internalType": "uint256",
          "name": "maxPaymentPerMonth",
          "type": "uint256"
        },
        {
          "internalType": "uint256",
          "name": "totalToPay",
          "type": "uint256"
        },
        {
          "internalType": "uint256",
          "name": "totalPaid",
          "type": "uint256"
        },
        {
          "internalType": "uint256",
          "name": "monthsToPay",
          "type": "uint256"
        },
        {
          "internalType": "bool",
          "name": "hasColateral",
          "type": "bool"
        }
      ],
      "stateMutability": "view",
      "type": "function"
    },
    {
      "inputs": [],
      "name": "decimals",
      "outputs": [
        {
          "internalType": "uint8",
          "name": "",
          "type": "uint8"
        }
      ],
      "stateMutability": "view",
      "type": "function"
    },
    {
      "inputs": [],
      "name": "getLoan",
      "outputs": [
        {
          "components": [
            {
              "internalType": "uint256",
              "name": "loanId",
              "type": "uint256"
            },
            {
              "internalType": "uint256",
              "name": "timestamp",
              "type": "uint256"
            },
            {
              "internalType": "uint256",
              "name": "tax",
              "type": "uint256"
            },
            {
              "internalType": "uint256",
              "name": "maxPaymentPerMonth",
              "type": "uint256"
            },
            {
              "internalType": "uint256",
              "name": "totalToPay",
              "type": "uint256"
            },
            {
              "internalType": "uint256",
              "name": "totalPaid",
              "type": "uint256"
            },
            {
              "internalType": "uint256",
              "name": "monthsToPay",
              "type": "uint256"
            },
            {
              "internalType": "bool",
              "name": "hasColateral",
              "type": "bool"
            }
          ],
          "internalType": "struct Loans.Loan",
          "name": "",
          "type": "tuple"
        }
      ],
      "stateMutability": "view",
      "type": "function"
    },
    {
      "inputs": [],
      "name": "getLoansId",
      "outputs": [
        {
          "internalType": "uint256[]",
          "name": "",
          "type": "uint256[]"
        }
      ],
      "stateMutability": "view",
      "type": "function"
    },
    {
      "inputs": [],
      "name": "loanId",
      "outputs": [
        {
          "internalType": "uint256",
          "name": "",
          "type": "uint256"
        }
      ],
      "stateMutability": "view",
      "type": "function"
    },
    {
      "inputs": [
        {
          "internalType": "address",
          "name": "",
          "type": "address"
        },
        {
          "internalType": "uint256",
          "name": "",
          "type": "uint256"
        }
      ],
      "name": "loansId",
      "outputs": [
        {
          "internalType": "uint256",
          "name": "",
          "type": "uint256"
        }
      ],
      "stateMutability": "view",
      "type": "function"
    },
    {
      "inputs": [],
      "name": "owner",
      "outputs": [
        {
          "internalType": "address",
          "name": "",
          "type": "address"
        }
      ],
      "stateMutability": "view",
      "type": "function"
    },
    {
      "inputs": [
        {
          "internalType": "address",
          "name": "borrower",
          "type": "address"
        },
        {
          "internalType": "uint256",
          "name": "lempiraCoinAmount",
          "type": "uint256"
        }
      ],
      "name": "payLoan",
      "outputs": [],
      "stateMutability": "nonpayable",
      "type": "function"
    },
    {
      "inputs": [
        {
          "internalType": "uint256",
          "name": "",
          "type": "uint256"
        },
        {
          "internalType": "uint256",
          "name": "",
          "type": "uint256"
        }
      ],
      "name": "payments",
      "outputs": [
        {
          "internalType": "uint256",
          "name": "amount",
          "type": "uint256"
        },
        {
          "internalType": "uint256",
          "name": "timestamp",
          "type": "uint256"
        }
      ],
      "stateMutability": "view",
      "type": "function"
    },
    {
      "inputs": [],
      "name": "renounceOwnership",
      "outputs": [],
      "stateMutability": "nonpayable",
      "type": "function"
    },
    {
      "inputs": [
        {
          "internalType": "uint256",
          "name": "_tax",
          "type": "uint256"
        }
      ],
      "name": "setTax",
      "outputs": [],
      "stateMutability": "nonpayable",
      "type": "function"
    },
    {
      "inputs": [],
      "name": "tax_porcent",
      "outputs": [
        {
          "internalType": "uint256",
          "name": "",
          "type": "uint256"
        }
      ],
      "stateMutability": "view",
      "type": "function"
    },
    {
      "inputs": [
        {
          "internalType": "address",
          "name": "newOwner",
          "type": "address"
        }
      ],
      "name": "transferOwnership",
      "outputs": [],
      "stateMutability": "nonpayable",
      "type": "function"
    },
    {
      "inputs": [
        {
          "internalType": "address",
          "name": "",
          "type": "address"
        },
        {
          "internalType": "uint256",
          "name": "",
          "type": "uint256"
        }
      ],
      "name": "userLoans",
      "outputs": [
        {
          "internalType": "uint256",
          "name": "",
          "type": "uint256"
        }
      ],
      "stateMutability": "view",
      "type": "function"
    }
  ],
  "bytecode": "0x60806040523461002757610011610099565b61001961002c565b61216a61026f823961216a90f35b610032565b60405190565b5f80fd5b5f1b90565b906100475f1991610036565b9181191691161790565b90565b90565b90565b61006e61006961007392610051565b610057565b610054565b90565b90565b9061008e6100896100959261005a565b610076565b825461003b565b9055565b6100a233610115565b6100af61012c6004610079565b565b90565b60018060a01b031690565b6100d36100ce6100d8926100b1565b610057565b6100b4565b90565b6100e4906100bf565b90565b6100f0906100b4565b90565b6100fc906100e7565b9052565b9190610113905f602085019401906100f3565b565b8061013061012a6101255f6100db565b6100e7565b916100e7565b146101405761013e9061020f565b565b61016361014c5f6100db565b5f918291631e4fbdf760e01b835260048301610100565b0390fd5b5f1c90565b60018060a01b031690565b61018361018891610167565b61016c565b90565b6101959054610177565b90565b906101a960018060a01b0391610036565b9181191691161790565b6101c76101c26101cc926100b4565b610057565b6100b4565b90565b6101d8906101b3565b90565b6101e4906101cf565b90565b90565b906101ff6101fa610206926101db565b6101e7565b8254610198565b9055565b5f0190565b6102185f61018b565b610222825f6101ea565b906102566102507f8be0079c531659141344cd1fd0a4f28419497f9722a3daafe3b4186f6b6457e0936101db565b916101db565b9161025f61002c565b806102698161020a565b0390a356fe60806040526004361015610013575b610b27565b61001d5f3561010c565b806307c88d13146101075780632655bd73146101025780632e5bb6ff146100fd578063313ce567146100f8578063427b2580146100f357806345812d22146100ee5780634859b3f4146100e95780635b5e9be1146100e45780637100b874146100df578063715018a6146100da5780638da5cb5b146100d5578063c8f78ea8146100d0578063c95669a5146100cb578063d8bad5bd146100c65763f2fde38b0361000e57610af4565b610abe565b610a54565b610a11565b6109dc565b610987565b610952565b610904565b61077b565b610692565b61053d565b610469565b6103c8565b610373565b6101f3565b60e01c90565b60405190565b5f80fd5b5f80fd5b60018060a01b031690565b61013490610120565b90565b6101408161012b565b0361014757565b5f80fd5b9050359061015882610137565b565b90565b6101668161015a565b0361016d57565b5f80fd5b9050359061017e8261015d565b565b151590565b61018e81610180565b0361019557565b5f80fd5b905035906101a682610185565b565b6080818303126101e9576101be825f830161014b565b926101e66101cf8460208501610171565b936101dd8160408601610171565b93606001610199565b90565b61011c565b5f0190565b346102255761020f6102063660046101a8565b929190916115dc565b610217610112565b80610221816101ee565b0390f35b610118565b9190604083820312610252578061024661024f925f8601610171565b93602001610171565b90565b61011c565b90565b61026e6102696102739261015a565b610257565b61015a565b90565b906102809061025a565b5f5260205260405f2090565b634e487b7160e01b5f52603260045260245ffd5b5490565b5f5260205f2090565b6102b6816102a0565b8210156102d0576102c86002916102a4565b910201905f90565b61028c565b5f1c90565b90565b6102e96102ee916102d5565b6102da565b90565b6102fb90546102dd565b90565b610309906001610276565b90610313826102a0565b81101561033f57610323916102ad565b509061033c60016103355f85016102f1565b93016102f1565b90565b5f80fd5b61034c9061015a565b9052565b91602061037192949361036a60408201965f830190610343565b0190610343565b565b346103a55761038c61038636600461022a565b906102fe565b906103a1610398610112565b92839283610350565b0390f35b610118565b906020828203126103c3576103c0915f01610171565b90565b61011c565b346103f6576103e06103db3660046103aa565b6116a8565b6103e8610112565b806103f2816101ee565b0390f35b610118565b5f91031261040557565b61011c565b90565b60ff1690565b61042761042261042c9261040a565b610257565b61040d565b90565b6104396012610413565b90565b61044461042f565b90565b6104509061040d565b9052565b9190610467905f60208501940190610447565b565b34610499576104793660046103fb565b61049561048461043c565b61048c610112565b91829182610454565b0390f35b610118565b5190565b60209181520190565b60200190565b6104ba9061015a565b9052565b906104cb816020936104b1565b0190565b60200190565b906104f26104ec6104e58461049e565b80936104a2565b926104ab565b905f5b8181106105025750505090565b90919261051b61051560019286516104be565b946104cf565b91019190916104f5565b61053a9160208201915f8184039101526104d5565b90565b3461056d5761054d3660046103fb565b610569610558611766565b610560610112565b91829182610525565b0390f35b610118565b919060408382031261059a578061058e610597925f860161014b565b93602001610171565b90565b61011c565b6105b36105ae6105b892610120565b610257565b610120565b90565b6105c49061059f565b90565b6105d0906105bb565b90565b906105dd906105c7565b5f5260205260405f2090565b5490565b5f5260205f2090565b6105ff816105e9565b821015610619576106116001916105ed565b910201905f90565b61028c565b1c90565b610632906008610637930261061e565b6102da565b90565b906106459154610622565b90565b6106539060066105d3565b61065c816105e9565b8210156106795761067691610670916105f6565b9061063a565b90565b5f80fd5b9190610690905f60208501940190610343565b565b346106c3576106bf6106ae6106a8366004610572565b90610648565b6106b6610112565b9182918261067d565b0390f35b610118565b6106d190610180565b9052565b9060e080610763936106ed5f8201515f8601906104b1565b6106ff602082015160208601906104b1565b610711604082015160408601906104b1565b610723606082015160608601906104b1565b610735608082015160808601906104b1565b61074760a082015160a08601906104b1565b61075960c082015160c08601906104b1565b01519101906106c8565b565b9190610779905f61010085019401906106d5565b565b346107ab5761078b3660046103fb565b6107a761079661196c565b61079e610112565b91829182610765565b0390f35b610118565b906020828203126107c9576107c6915f0161014b565b90565b61011c565b906107d8906105c7565b5f5260205260405f2090565b60ff1690565b6107f66107fb916102d5565b6107e4565b90565b61080890546107ea565b90565b6108169060056107ce565b906108225f83016102f1565b9161082f600182016102f1565b9161083c600283016102f1565b91610849600382016102f1565b91610856600483016102f1565b91610863600582016102f1565b9161087c6007610875600685016102f1565b93016107fe565b90565b61088890610180565b9052565b959391989796949290986101008701995f88016108a891610343565b602087016108b591610343565b604086016108c291610343565b606085016108cf91610343565b608084016108dc91610343565b60a083016108e991610343565b60c082016108f691610343565b60e0016109029161087f565b565b3461093e5761093a61091f61091a3660046107b0565b61080b565b94610931989698949194939293610112565b9889988961088c565b0390f35b610118565b61094f60045f9061063a565b90565b34610982576109623660046103fb565b61097e61096d610943565b610975610112565b9182918261067d565b0390f35b610118565b346109b5576109973660046103fb565b61099f6119e2565b6109a7610112565b806109b1816101ee565b0390f35b610118565b6109c39061012b565b9052565b91906109da905f602085019401906109ba565b565b34610a0c576109ec3660046103fb565b610a086109f7611a1c565b6109ff610112565b918291826109c7565b0390f35b610118565b34610a4057610a2a610a24366004610572565b90611fc0565b610a32610112565b80610a3c816101ee565b0390f35b610118565b610a5160035f9061063a565b90565b34610a8457610a643660046103fb565b610a80610a6f610a45565b610a77610112565b9182918261067d565b0390f35b610118565b610a949060026105d3565b610a9d816105e9565b821015610aba57610ab791610ab1916105f6565b9061063a565b90565b5f80fd5b34610aef57610aeb610ada610ad4366004610572565b90610a89565b610ae2610112565b9182918261067d565b0390f35b610118565b34610b2257610b0c610b073660046107b0565b612031565b610b14610112565b80610b1e816101ee565b0390f35b610118565b5f80fd5b90610b3f939291610b3a61203c565b6112a0565b565b90565b610b58610b53610b5d92610b41565b610257565b61015a565b90565b634e487b7160e01b5f52601160045260245ffd5b610b83610b899193929361015a565b9261015a565b91610b9583820261015a565b928184041490151715610ba457565b610b60565b90565b610bc0610bbb610bc592610ba9565b610257565b610120565b90565b610bd190610bac565b90565b60209181520190565b5f7f7a65726f20616464726573730000000000000000000000000000000000000000910152565b610c11600c602092610bd4565b610c1a81610bdd565b0190565b610c339060208101905f818303910152610c04565b90565b15610c3d57565b610c45610112565b62461bcd60e51b815280610c5b60048201610c1e565b0390fd5b610c73610c6e610c7892610ba9565b610257565b61015a565b90565b5f7f416d6f756e74206d7573742062652067726561746572207468616e2030000000910152565b610caf601d602092610bd4565b610cb881610c7b565b0190565b610cd19060208101905f818303910152610ca2565b90565b15610cdb57565b610ce3610112565b62461bcd60e51b815280610cf960048201610cbc565b0390fd5b5f7f4c6f616e20616c72656164792065786973747300000000000000000000000000910152565b610d316013602092610bd4565b610d3a81610cfd565b0190565b610d539060208101905f818303910152610d24565b90565b15610d5d57565b610d65610112565b62461bcd60e51b815280610d7b60048201610d3e565b0390fd5b60207f2031204c454d5000000000000000000000000000000000000000000000000000917f4d6178207061796d656e74206d7573742062652067726561746572207468616e5f8201520152565b610dd96027604092610bd4565b610de281610d7f565b0190565b610dfb9060208101905f818303910152610dcc565b90565b15610e0557565b610e0d610112565b62461bcd60e51b815280610e2360048201610de6565b0390fd5b5f7f416d6f756e74206d757374206265206174206c656173742031204c454d500000910152565b610e5b601e602092610bd4565b610e6481610e27565b0190565b610e7d9060208101905f818303910152610e4e565b90565b15610e8757565b610e8f610112565b62461bcd60e51b815280610ea560048201610e68565b0390fd5b634e487b7160e01b5f52601260045260245ffd5b610ec9610ecf9161015a565b9161015a565b908115610eda570490565b610ea9565b610eeb610ef19161015a565b9161015a565b908115610efc570690565b610ea9565b90565b610f18610f13610f1d92610f01565b610257565b61015a565b90565b610f2f610f359193929361015a565b9261015a565b8201809211610f4057565b610b60565b90565b610f5c610f57610f6192610f45565b610257565b61015a565b90565b5f1b90565b90610f755f1991610f64565b9181191691161790565b90565b90610f97610f92610f9e9261025a565b610f7f565b8254610f69565b9055565b90565b610fb9610fb4610fbe92610fa2565b610257565b61015a565b90565b601f801991011690565b634e487b7160e01b5f52604160045260245ffd5b90610fe990610fc1565b810190811067ffffffffffffffff82111761100357604052565b610fcb565b9061101b611014610112565b9283610fdf565b565b611028610100611008565b90565b906110359061015a565b9052565b9061104390610180565b9052565b634e487b7160e01b5f525f60045260245ffd5b611064905161015a565b90565b6110719051610180565b90565b9061108060ff91610f64565b9181191691161790565b61109390610180565b90565b90565b906110ae6110a96110b59261108a565b611096565b8254611074565b9055565b9061117a60e06007611180946110dc5f82016110d65f880161105a565b90610f82565b6110f5600182016110ef6020880161105a565b90610f82565b61110e600282016111086040880161105a565b90610f82565b611127600382016111216060880161105a565b90610f82565b6111406004820161113a6080880161105a565b90610f82565b6111596005820161115360a0880161105a565b90610f82565b6111726006820161116c60c0880161105a565b90610f82565b019201611067565b90611099565b565b9061118c916110b9565b565b90565b5f5260205f2090565b5490565b6111a78161119a565b8210156111c1576111b9600191611191565b910201905f90565b61028c565b1b90565b919060086111e59102916111df5f19846111c6565b926111c6565b9181191691161790565b919061120561120061120d9361025a565b610f7f565b9083546111ca565b9055565b9081549168010000000000000000831015611241578261123991600161123f9501815561119e565b906111ef565b565b610fcb565b61124f9061015a565b5f19811461125d5760010190565b610b60565b61129761129e9461128d606094989795611283608086019a5f870190610343565b60208501906109ba565b6040830190610343565b0190610343565b565b929190916112bf836112b9670de0b6b3a7640000610b44565b90610b74565b906112db836112d5670de0b6b3a7640000610b44565b90610b74565b611300866112f96112f36112ee5f610bc8565b61012b565b9161012b565b1415610c36565b61131c856113166113105f610c5f565b9161015a565b11610cd4565b61134e611336600661133060058a906107ce565b016102f1565b6113486113425f610c5f565b9161015a565b14610d56565b6113728161136c611366670de0b6b3a7640000610b44565b9161015a565b11610dfe565b6113978361139061138a670de0b6b3a7640000610b44565b9161015a565b1015610e80565b6113ac6113a5848390610ebd565b9184610edf565b6113be6113b85f610c5f565b9161015a565b115f146115d7576113d9906113d36001610f04565b90610f20565b5b91816115be575b846113ec60046102f1565b6113f591610b74565b606461140090610fa5565b61140991610ebd565b670de0b6b3a764000061141b90610b44565b61142491610b74565b61142d91610f20565b9161143860036102f1565b93429361144560046102f1565b91670de0b6b3a764000061145890610b44565b61146191610b74565b90915f93949561146f61101d565b975f89019061147d9161102b565b602088019061148b9161102b565b60408701906114999161102b565b60608601906114a79161102b565b60808501906114b59161102b565b6114be90610c5f565b60a08401906114cc9161102b565b60c08301906114da9161102b565b60e08201906114e891611039565b6005836114f4916107ce565b906114fe91611182565b60068261150a916105d3565b6115139061118e565b61151d60036102f1565b61152691611211565b600282611532916105d3565b61153b9061118e565b61154560036102f1565b61154e91611211565b61155860036102f1565b61156190611246565b61156c906003610f82565b61157660036102f1565b9161158160046102f1565b927f3373919ad665425d2cddb4072830e5935b6ee308440fa99b23383648da473bc0936115ac610112565b9384936115b99385611262565b0390a1565b6115d26115cb6014610f48565b6004610f82565b6113e1565b6113da565b906115e8939291610b2b565b565b6115fb906115f661203c565b61167f565b565b5f7f546178206d7573742062652067726561746572207468616e2030000000000000910152565b611631601a602092610bd4565b61163a816115fd565b0190565b6116539060208101905f818303910152611624565b90565b1561165d57565b611665610112565b62461bcd60e51b81528061167b6004820161163e565b0390fd5b6116a69061169f816116996116935f610c5f565b9161015a565b11611656565b6004610f82565b565b6116b1906115ea565b565b606090565b60209181520190565b6116cb90546102dd565b90565b60010190565b906116f16116eb6116e4846105e9565b80936116b8565b926105ed565b905f5b8181106117015750505090565b90919261172161171b600192611716876116c1565b6104be565b946116ce565b91019190916116f4565b90611735916116d4565b90565b9061175861175192611748610112565b9384809261172b565b0383610fdf565b565b61176390611738565b90565b61176e6116b3565b5061178361177e600633906105d3565b61175a565b90565b611791610100611008565b90565b5f90565b5f90565b6117a4611786565b90602080808080808080896117b7611794565b8152016117c2611794565b8152016117cd611794565b8152016117d8611794565b8152016117e3611794565b8152016117ee611794565b8152016117f9611794565b815201611804611798565b81525050565b61181261179c565b90565b5f7f4e6f206c6f616e00000000000000000000000000000000000000000000000000910152565b6118496007602092610bd4565b61185281611815565b0190565b61186b9060208101905f81830391015261183c565b90565b1561187557565b61187d610112565b62461bcd60e51b81528061189360048201611856565b0390fd5b9061195e61195560076118a8611786565b946118bf6118b75f83016102f1565b5f880161102b565b6118d76118ce600183016102f1565b6020880161102b565b6118ef6118e6600283016102f1565b6040880161102b565b6119076118fe600383016102f1565b6060880161102b565b61191f611916600483016102f1565b6080880161102b565b61193761192e600583016102f1565b60a0880161102b565b61194f611946600683016102f1565b60c0880161102b565b016107fe565b60e08401611039565b565b61196990611897565b90565b61197461180a565b506119a661198e5f611988600533906107ce565b016102f1565b6119a061199a5f610c5f565b9161015a565b1161186e565b6119ba6119b5600533906107ce565b611960565b90565b6119c561203c565b6119cd6119cf565b565b6119e06119db5f610bc8565b6120c8565b565b6119ea6119bd565b565b5f90565b60018060a01b031690565b611a07611a0c916102d5565b6119f0565b90565b611a1990546119fb565b90565b611a246119ec565b50611a2e5f611a0f565b90565b90611a4391611a3e61203c565b611c10565b565b5f7f4e6f7420656e6f7567682062616c616e63650000000000000000000000000000910152565b611a796012602092610bd4565b611a8281611a45565b0190565b611a9b9060208101905f818303910152611a6c565b90565b15611aa557565b611aad610112565b62461bcd60e51b815280611ac360048201611a86565b0390fd5b611ad6611adc9193929361015a565b9261015a565b8203918211611ae757565b610b60565b90565b611af96040611008565b90565b5f5260205f2090565b5490565b611b1281611b05565b821015611b2c57611b24600291611afc565b910201905f90565b61028c565b90611b5c60206001611b6294611b545f8201611b4e5f880161105a565b90610f82565b01920161105a565b90610f82565b565b9190611b7557611b7391611b31565b565b611047565b9081549168010000000000000000831015611baa5782611ba2916001611ba895018155611b09565b90611b64565b565b610fcb565b916020611bd0929493611bc960408201965f830190610343565b01906109ba565b565b611c07611c0e94611bfd606094989795611bf3608086019a5f870190610343565b6020850190610343565b60408301906109ba565b0190610343565b565b611c2b82611c25670de0b6b3a7640000610b44565b90610b74565b611c5c611c445f611c3e600586906107ce565b016102f1565b611c56611c505f610c5f565b9161015a565b1161186e565b611c8181611c7a611c74670de0b6b3a7640000610b44565b9161015a565b1015610e80565b611c975f611c91600585906107ce565b016102f1565b90611ccb611cb26004611cac600587906107ce565b016102f1565b611cc4611cbe8461015a565b9161015a565b1015611a9e565b611ceb611ce46005611cde8187906107ce565b016102f1565b8290610f20565b611d13611d0d611d086004611d02600589906107ce565b016102f1565b61015a565b9161015a565b11611f7f575b611d3890611d336005611d2d8187906107ce565b016102f1565b610f20565b611d4f816005611d498187906107ce565b01610f82565b611dd2611daa611da56001611d9f611d99611d6c60028a906105d3565b611d93611d83611d7e60028d906105d3565b6105e9565b611d8d6001610f04565b90611ac7565b906105f6565b9061063a565b90610276565b611aec565b8590611dcd42611dc4611dbb611aef565b945f860161102b565b6020840161102b565b611b7a565b611dfa611df4611def6004611de9600588906107ce565b016102f1565b61015a565b9161015a565b14611e65575b611e60611e2a611e1a611e1560018590610276565b6102a0565b611e246001610f04565b90611ac7565b9192937f1e9d8828e0ec2f554f4f8c9f8966946e4bebece6651297d2769b7e05f97c63b394611e57610112565b94859485611bd2565b0390a1565b8082907f90ffc7485b95b27a90a5b4173d58d4590d72ace36556dc3884b1bdc9e928225891611e92610112565b918291611e9f9183611baf565b0390a15f5f5f5f5f5f915f935f95611eb561101d565b97611ebf90610c5f565b5f890190611ecc9161102b565b611ed590610c5f565b6020880190611ee39161102b565b611eec90610c5f565b6040870190611efa9161102b565b611f0390610c5f565b6060860190611f119161102b565b611f1a90610c5f565b6080850190611f289161102b565b611f3190610c5f565b60a0840190611f3f9161102b565b611f4890610c5f565b60c0830190611f569161102b565b60e0820190611f6491611039565b600583611f70916107ce565b90611f7a91611182565b611e00565b50611d38611fb9611f9d6004611f97600587906107ce565b016102f1565b611fb36005611fad8188906107ce565b016102f1565b90611ac7565b9050611d19565b90611fca91611a31565b565b611fdd90611fd861203c565b611fdf565b565b80611ffa611ff4611fef5f610bc8565b61012b565b9161012b565b1461200a57612008906120c8565b565b61202d6120165f610bc8565b5f918291631e4fbdf760e01b8352600483016109c7565b0390fd5b61203a90611fcc565b565b612044611a1c565b61205d612057612052612127565b61012b565b9161012b565b0361206457565b61208661206f612127565b5f91829163118cdaa760e01b8352600483016109c7565b0390fd5b9061209b60018060a01b0391610f64565b9181191691161790565b90565b906120bd6120b86120c4926105c7565b6120a5565b825461208a565b9055565b6120d15f611a0f565b6120db825f6120a8565b9061210f6121097f8be0079c531659141344cd1fd0a4f28419497f9722a3daafe3b4186f6b6457e0936105c7565b916105c7565b91612118610112565b80612122816101ee565b0390a3565b61212f6119ec565b50339056fea26469706673582212208b8386035e299b7baa69191a724132a48ba66dcc5ef2b3674169dbdefcf44c4764736f6c634300081c0033",
  "linkReferences": {},
  "deployedLinkReferences": {},
  "immutableReferences": {},
  "inputSourceName": "project/contracts/Loans.sol",
  "buildInfoId": "solc-0_8_28-e47f5618992b26063daaa8755ff37584700829da"
}