{
  "_format": "hh3-artifact-1",
  "contractName": "Prestamigo",
  "sourceName": "contracts/Prestamigo.sol",
  "abi": [
    {
      "inputs": [
        {
          "internalType": "address",
          "name": "_owner",
          "type": "address"
        },
        {
          "internalType": "contract LempiraCoin",
          "name": "_lem",
          "type": "address"
        },
        {
          "internalType": "contract Loans",
          "name": "_loans",
          "type": "address"
        }
      ],
      "stateMutability": "nonpayable",
      "type": "constructor"
    },
    {
      "inputs": [
        {
          "internalType": "address",
          "name": "owner",
          "type": "address"
        }
      ],
      "name": "OwnableInvalidOwner",
      "type": "error"
    },
    {
      "inputs": [
        {
          "internalType": "address",
          "name": "account",
          "type": "address"
        }
      ],
      "name": "OwnableUnauthorizedAccount",
      "type": "error"
    },
    {
      "anonymous": false,
      "inputs": [
        {
          "indexed": true,
          "internalType": "address",
          "name": "user",
          "type": "address"
        }
      ],
      "name": "AddedToBlacklist",
      "type": "event"
    },
    {
      "anonymous": false,
      "inputs": [
        {
          "indexed": true,
          "internalType": "address",
          "name": "previousOwner",
          "type": "address"
        },
        {
          "indexed": true,
          "internalType": "address",
          "name": "newOwner",
          "type": "address"
        }
      ],
      "name": "OwnershipTransferred",
      "type": "event"
    },
    {
      "anonymous": false,
      "inputs": [
        {
          "indexed": true,
          "internalType": "address",
          "name": "user",
          "type": "address"
        }
      ],
      "name": "RemovedFromBlacklist",
      "type": "event"
    },
    {
      "inputs": [
        {
          "internalType": "address",
          "name": "_user",
          "type": "address"
        }
      ],
      "name": "addToBlacklist",
      "outputs": [],
      "stateMutability": "nonpayable",
      "type": "function"
    },
    {
      "inputs": [
        {
          "internalType": "address",
          "name": "",
          "type": "address"
        }
      ],
      "name": "blacklist",
      "outputs": [
        {
          "internalType": "bool",
          "name": "",
          "type": "bool"
        }
      ],
      "stateMutability": "view",
      "type": "function"
    },
    {
      "inputs": [
        {
          "internalType": "uint256",
          "name": "lempiraCoinAmount",
          "type": "uint256"
        },
        {
          "internalType": "uint256",
          "name": "maxPaymentPerMonth",
          "type": "uint256"
        },
        {
          "internalType": "bool",
          "name": "hasColateral",
          "type": "bool"
        }
      ],
      "name": "createLoan",
      "outputs": [],
      "stateMutability": "nonpayable",
      "type": "function"
    },
    {
      "inputs": [
        {
          "internalType": "address",
          "name": "_user",
          "type": "address"
        }
      ],
      "name": "isBanned",
      "outputs": [
        {
          "internalType": "bool",
          "name": "",
          "type": "bool"
        }
      ],
      "stateMutability": "view",
      "type": "function"
    },
    {
      "inputs": [],
      "name": "lem",
      "outputs": [
        {
          "internalType": "contract LempiraCoin",
          "name": "",
          "type": "address"
        }
      ],
      "stateMutability": "view",
      "type": "function"
    },
    {
      "inputs": [],
      "name": "loans",
      "outputs": [
        {
          "internalType": "contract Loans",
          "name": "",
          "type": "address"
        }
      ],
      "stateMutability": "view",
      "type": "function"
    },
    {
      "inputs": [],
      "name": "maxLoanAmount",
      "outputs": [
        {
          "internalType": "uint256",
          "name": "",
          "type": "uint256"
        }
      ],
      "stateMutability": "view",
      "type": "function"
    },
    {
      "inputs": [],
      "name": "owner",
      "outputs": [
        {
          "internalType": "address",
          "name": "",
          "type": "address"
        }
      ],
      "stateMutability": "view",
      "type": "function"
    },
    {
      "inputs": [
        {
          "internalType": "uint256",
          "name": "lempiraCoinAmount",
          "type": "uint256"
        }
      ],
      "name": "payLoan",
      "outputs": [],
      "stateMutability": "nonpayable",
      "type": "function"
    },
    {
      "inputs": [
        {
          "internalType": "address",
          "name": "_user",
          "type": "address"
        }
      ],
      "name": "removeFromBlacklist",
      "outputs": [],
      "stateMutability": "nonpayable",
      "type": "function"
    },
    {
      "inputs": [],
      "name": "renounceOwnership",
      "outputs": [],
      "stateMutability": "nonpayable",
      "type": "function"
    },
    {
      "inputs": [
        {
          "internalType": "address",
          "name": "_lem",
          "type": "address"
        }
      ],
      "name": "setNewLempiraCoinContract",
      "outputs": [],
      "stateMutability": "nonpayable",
      "type": "function"
    },
    {
      "inputs": [
        {
          "internalType": "address",
          "name": "_loans",
          "type": "address"
        }
      ],
      "name": "setNewLoanContract",
      "outputs": [],
      "stateMutability": "nonpayable",
      "type": "function"
    },
    {
      "inputs": [
        {
          "internalType": "address",
          "name": "newOwner",
          "type": "address"
        }
      ],
      "name": "transferOwnership",
      "outputs": [],
      "stateMutability": "nonpayable",
      "type": "function"
    },
    {
      "stateMutability": "payable",
      "type": "receive"
    }
  ],
  "bytecode": "0x6080604052346100305761001a61001461017b565b916102cb565b610022610035565b611562610459823961156290f35b61003b565b60405190565b5f80fd5b601f801991011690565b634e487b7160e01b5f52604160045260245ffd5b906100679061003f565b810190811060018060401b0382111761007f57604052565b610049565b90610097610090610035565b928361005d565b565b5f80fd5b60018060a01b031690565b6100b19061009d565b90565b6100bd816100a8565b036100c457565b5f80fd5b905051906100d5826100b4565b565b6100e09061009d565b90565b6100ec906100d7565b90565b6100f8816100e3565b036100ff57565b5f80fd5b90505190610110826100ef565b565b61011b906100a8565b90565b61012781610112565b0361012e57565b5f80fd5b9050519061013f8261011e565b565b90916060828403126101765761017361015c845f85016100c8565b9361016a8160208601610103565b93604001610132565b90565b610099565b6101996119bb8038038061018e81610084565b928339810190610141565b909192565b5f1b90565b906101b460018060a01b039161019e565b9181191691161790565b90565b6101d56101d06101da9261009d565b6101be565b61009d565b90565b6101e6906101c1565b90565b6101f2906101dd565b90565b90565b9061020d610208610214926101e9565b6101f5565b82546101a3565b9055565b610221906101c1565b90565b61022d90610218565b90565b90565b9061024861024361024f92610224565b610230565b82546101a3565b9055565b61025c906101c1565b90565b61026890610253565b90565b906102759061025f565b5f5260205260405f2090565b9061028d60ff9161019e565b9181191691161790565b151590565b6102a590610297565b90565b90565b906102c06102bb6102c79261029c565b6102a8565b8254610281565b9055565b6102ea92916102dc6102e39261034e565b60016101f8565b6002610233565b6102ff5f6102fa6003339061026b565b6102ab565b565b90565b61031861031361031d92610301565b6101be565b61009d565b90565b61032990610304565b90565b610335906100a8565b9052565b919061034c905f6020850194019061032c565b565b8061036961036361035e5f610320565b6100a8565b916100a8565b1461037957610377906103f9565b565b61039c6103855f610320565b5f918291631e4fbdf760e01b835260048301610339565b0390fd5b5f1c90565b60018060a01b031690565b6103bc6103c1916103a0565b6103a5565b90565b6103ce90546103b0565b90565b90565b906103e96103e46103f09261025f565b6103d1565b82546101a3565b9055565b5f0190565b6104025f6103c4565b61040c825f6103d4565b9061044061043a7f8be0079c531659141344cd1fd0a4f28419497f9722a3daafe3b4186f6b6457e09361025f565b9161025f565b91610449610035565b80610453816103f4565b0390a356fe60806040526004361015610015575b3661072057005b61001f5f356100fe565b8063063758ae146100f957806344337ea1146100f4578063537df3b6146100ef578063715018a6146100ea57806372f94365146100e55780638da5cb5b146100e057806397f735d5146100db578063a8d7b3ec146100d6578063bc6f3cab146100d1578063d3cc3497146100cc578063dae63ab5146100c7578063e9946b20146100c2578063f2fde38b146100bd5763f9f92be40361000e576106eb565b610651565b61061c565b61056f565b61053c565b610508565b610478565b610402565b6103a6565b61034f565b6102b6565b610283565b610250565b6101c9565b60e01c90565b60405190565b5f80fd5b5f80fd5b5f91031261011c57565b61010e565b1c90565b60018060a01b031690565b6101409060086101459302610121565b610125565b90565b906101539154610130565b90565b61016260015f90610148565b90565b60018060a01b031690565b90565b61018761018261018c92610165565b610170565b610165565b90565b61019890610173565b90565b6101a49061018f565b90565b6101b09061019b565b9052565b91906101c7905f602085019401906101a7565b565b346101f9576101d9366004610112565b6101f56101e4610156565b6101ec610104565b918291826101b4565b0390f35b61010a565b61020790610165565b90565b610213816101fe565b0361021a57565b5f80fd5b9050359061022b8261020a565b565b9060208282031261024657610243915f0161021e565b90565b61010e565b5f0190565b3461027e5761026861026336600461022d565b6107d9565b610270610104565b8061027a8161024b565b0390f35b61010a565b346102b15761029b61029636600461022d565b61084e565b6102a3610104565b806102ad8161024b565b0390f35b61010a565b346102e4576102c6366004610112565b6102ce6108a9565b6102d6610104565b806102e08161024b565b0390f35b61010a565b90565b90565b6103036102fe610308926102e9565b610170565b6102ec565b90565b61031f6a0422ca8b0a00a4250000006102ef565b90565b61032a61030b565b90565b610336906102ec565b9052565b919061034d905f6020850194019061032d565b565b3461037f5761035f366004610112565b61037b61036a610322565b610372610104565b9182918261033a565b0390f35b61010a565b61038d906101fe565b9052565b91906103a4905f60208501940190610384565b565b346103d6576103b6366004610112565b6103d26103c16108e8565b6103c9610104565b91829182610391565b0390f35b61010a565b151590565b6103e9906103db565b9052565b9190610400905f602085019401906103e0565b565b346104325761042e61041d61041836600461022d565b610922565b610425610104565b918291826103ed565b0390f35b61010a565b610440816102ec565b0361044757565b5f80fd5b9050359061045882610437565b565b9060208282031261047357610470915f0161044b565b90565b61010e565b346104a65761049061048b36600461045a565b610bc7565b610498610104565b806104a28161024b565b0390f35b61010a565b6104b4816103db565b036104bb57565b5f80fd5b905035906104cc826104ab565b565b9091606082840312610503576105006104e9845f850161044b565b936104f7816020860161044b565b936040016104bf565b90565b61010e565b346105375761052161051b3660046104ce565b91611062565b610529610104565b806105338161024b565b0390f35b61010a565b3461056a5761055461054f36600461022d565b61135a565b61055c610104565b806105668161024b565b0390f35b61010a565b3461059d5761058761058236600461022d565b6113d4565b61058f610104565b806105998161024b565b0390f35b61010a565b60018060a01b031690565b6105bd9060086105c29302610121565b6105a2565b90565b906105d091546105ad565b90565b6105df60025f906105c5565b90565b6105eb90610173565b90565b6105f7906105e2565b90565b610603906105ee565b9052565b919061061a905f602085019401906105fa565b565b3461064c5761062c366004610112565b6106486106376105d3565b61063f610104565b91829182610607565b0390f35b61010a565b3461067f5761066961066436600461022d565b611444565b610671610104565b8061067b8161024b565b0390f35b61010a565b61068d906105e2565b90565b9061069a90610684565b5f5260205260405f2090565b60ff1690565b6106bc9060086106c19302610121565b6106a6565b90565b906106cf91546106ac565b90565b6106e8906106e36003915f92610690565b6106c4565b90565b3461071b5761071761070661070136600461022d565b6106d2565b61070e610104565b918291826103ed565b0390f35b61010a565b5f80fd5b6107359061073061144f565b610781565b565b5f1b90565b9061074860ff91610737565b9181191691161790565b61075b906103db565b90565b90565b9061077661077161077d92610752565b61075e565b825461073c565b9055565b610797600161079260038490610690565b610761565b6107c17ff9b68063b051b82957fa193585681240904fed808db8b30fc5a2d2202c6ed62791610684565b906107ca610104565b806107d48161024b565b0390a2565b6107e290610724565b565b6107f5906107f061144f565b6107f7565b565b61080c5f61080760038490610690565b610761565b6108367f2b6bf71b58b3583add364b3d9060ebf8019650f65f5be35f5464b9cb3e4ba2d491610684565b9061083f610104565b806108498161024b565b0390a2565b610857906107e4565b565b61086161144f565b610869610896565b565b90565b61088261087d6108879261086b565b610170565b610165565b90565b6108939061086e565b90565b6108a76108a25f61088a565b6114c0565b565b6108b1610859565b565b5f90565b5f1c90565b60018060a01b031690565b6108d36108d8916108b7565b6108bc565b90565b6108e590546108c7565b90565b6108f06108b3565b506108fa5f6108db565b90565b5f90565b61090d610912916108b7565b6106a6565b90565b61091f9054610901565b90565b61093961093e916109316108fd565b506003610690565b610915565b90565b61094d610952916108b7565b610125565b90565b61095f9054610941565b90565b61096b906105e2565b90565b5f80fd5b601f801991011690565b634e487b7160e01b5f52604160045260245ffd5b9061099a90610972565b810190811067ffffffffffffffff8211176109b457604052565b61097c565b60e01b90565b905051906109cc82610437565b565b906020828203126109e7576109e4915f016109bf565b90565b61010e565b6109f4610104565b3d5f823e3d90fd5b60209181520190565b5f7f4e6f207469656e657320737566696369656e7465204c454d5000000000000000910152565b610a3960196020926109fc565b610a4281610a05565b0190565b610a5b9060208101905f818303910152610a2c565b90565b15610a6557565b610a6d610104565b62461bcd60e51b815280610a8360048201610a46565b0390fd5b5f7f596f75206172652062616e6e6564000000000000000000000000000000000000910152565b610abb600e6020926109fc565b610ac481610a87565b0190565b610add9060208101905f818303910152610aae565b90565b15610ae757565b610aef610104565b62461bcd60e51b815280610b0560048201610ac8565b0390fd5b610b12906105e2565b90565b90505190610b22826104ab565b565b90602082820312610b3d57610b3a915f01610b15565b90565b61010e565b604090610b6b610b729496959396610b6160608401985f850190610384565b6020830190610384565b019061032d565b565b610b80610b85916108b7565b6105a2565b90565b610b929054610b74565b90565b5f910312610b9f57565b61010e565b916020610bc5929493610bbe60408201965f830190610384565b019061032d565b565b610c086020610bde610bd96001610955565b610962565b6370a0823190610bfd3392610bf1610104565b958694859384936109b9565b835260048301610391565b03915afa8015610dac57610c38915f91610d7e575b50610c31610c2b84926102ec565b916102ec565b1115610a5e565b610c5d610c58610c52610c4d60033390610690565b610915565b156103db565b610ae0565b610c6f610c6a6001610955565b610962565b60206323b872dd913390610c9f5f610c8630610b09565b95610caa88610c93610104565b988997889687956109b9565b855260048501610b42565b03925af18015610d7957610d4d575b50610ccc610cc76002610b88565b6105ee565b9063c8f78ea890339092803b15610d4857610cfa5f8094610d05610cee610104565b978896879586946109b9565b845260048401610ba4565b03925af18015610d4357610d17575b50565b610d36905f3d8111610d3c575b610d2e8183610990565b810190610b95565b5f610d14565b503d610d24565b6109ec565b61096e565b610d6d9060203d8111610d72575b610d658183610990565b810190610b24565b610cb9565b503d610d5b565b6109ec565b610d9f915060203d8111610da5575b610d978183610990565b8101906109ce565b5f610c1d565b503d610d8d565b6109ec565b90565b610dc8610dc3610dcd92610db1565b610170565b6102ec565b90565b5f7f416d6f756e74206d757374206265206174206c656173742031204c454d500000910152565b610e04601e6020926109fc565b610e0d81610dd0565b0190565b610e269060208101905f818303910152610df7565b90565b15610e3057565b610e38610104565b62461bcd60e51b815280610e4e60048201610e11565b0390fd5b60207f6861766520656e6f756768204c454d5000000000000000000000000000000000917f696e2074686973206d6f6d656e7420636f6e747261637420646f65736e2774205f8201520152565b610eac60306040926109fc565b610eb581610e52565b0190565b610ece9060208101905f818303910152610e9f565b90565b15610ed857565b610ee0610104565b62461bcd60e51b815280610ef660048201610eb9565b0390fd5b5f7f416d6f756e7420746f6f206c6172676500000000000000000000000000000000910152565b610f2e60106020926109fc565b610f3781610efa565b0190565b610f509060208101905f818303910152610f21565b90565b15610f5a57565b610f62610104565b62461bcd60e51b815280610f7860048201610f3b565b0390fd5b60207f454d500000000000000000000000000000000000000000000000000000000000917f4d6178207061796d656e74206d757374206265206174206c656173742031204c5f8201520152565b610fd660236040926109fc565b610fdf81610f7c565b0190565b610ff89060208101905f818303910152610fc9565b90565b1561100257565b61100a610104565b62461bcd60e51b81528061102060048201610fe3565b0390fd5b6110596110609461104f606094989795611045608086019a5f870190610384565b602085019061032d565b604083019061032d565b01906103e0565b565b916110888361108161107b670de0b6b3a7640000610db4565b916102ec565b1015610e29565b6110ad6110a86110a261109d60033390610690565b610915565b156103db565b610ae0565b6110f560206110c46110bf6001610955565b610962565b6370a08231906110ea6110d56108e8565b926110de610104565b958694859384936109b9565b835260048301610391565b03915afa80156112b757611124915f91611289575b5061111d611117866102ec565b916102ec565b1015610ed1565b6111488361114161113b61113661030b565b6102ec565b916102ec565b1115610f53565b61116d82611166611160670de0b6b3a7640000610db4565b916102ec565b1015610ffb565b61117f61117a6002610b88565b6105ee565b906307c88d13913391859490823b15611284575f946111bc86926111b1946111a5610104565b998a98899788966109b9565b865260048601611024565b03925af1801561127f57611253575b5060206111e06111db6001610955565b610962565b9163a9059cbb926112055f3393956112106111f9610104565b978896879586946109b9565b845260048401610ba4565b03925af1801561124e57611222575b50565b6112429060203d8111611247575b61123a8183610990565b810190610b24565b61121f565b503d611230565b6109ec565b611272905f3d8111611278575b61126a8183610990565b810190610b95565b5f6111cb565b503d611260565b6109ec565b61096e565b6112aa915060203d81116112b0575b6112a28183610990565b8101906109ce565b5f61110a565b503d611298565b6109ec565b6112cd906112c861144f565b61133d565b565b6112d89061018f565b90565b6112e490610173565b90565b6112f0906112db565b90565b9061130460018060a01b0391610737565b9181191691161790565b611317906112db565b90565b90565b9061133261132d6113399261130e565b61131a565b82546112f3565b9055565b61135161134c611358926112cf565b6112e7565b600161131d565b565b611363906112bc565b565b6113769061137161144f565b6113bf565b565b61138190610173565b90565b61138d90611378565b90565b61139990611378565b90565b90565b906113b46113af6113bb92611390565b61139c565b82546112f3565b9055565b6113cb6113d291611384565b600261139f565b565b6113dd90611365565b565b6113f0906113eb61144f565b6113f2565b565b8061140d6114076114025f61088a565b6101fe565b916101fe565b1461141d5761141b906114c0565b565b6114406114295f61088a565b5f918291631e4fbdf760e01b835260048301610391565b0390fd5b61144d906113df565b565b6114576108e8565b61147061146a61146561151f565b6101fe565b916101fe565b0361147757565b61149961148261151f565b5f91829163118cdaa760e01b835260048301610391565b0390fd5b90565b906114b56114b06114bc92610684565b61149d565b82546112f3565b9055565b6114c95f6108db565b6114d3825f6114a0565b906115076115017f8be0079c531659141344cd1fd0a4f28419497f9722a3daafe3b4186f6b6457e093610684565b91610684565b91611510610104565b8061151a8161024b565b0390a3565b6115276108b3565b50339056fea2646970667358221220f3c90e8a077161148761ad9ee4f18f8c20a1f3a729951a31933a216f111af3d964736f6c634300081c0033",
  "linkReferences": {},
  "deployedLinkReferences": {},
  "immutableReferences": {},
  "inputSourceName": "project/contracts/Prestamigo.sol",
  "buildInfoId": "solc-0_8_28-e47f5618992b26063daaa8755ff37584700829da"
}